{
  "contractName": "MultiNumberBettingV7",
  "abi": [
    {
      "constant": true,
      "inputs": [],
      "name": "lastWinnerAt",
      "outputs": [
        {
          "name": "",
          "type": "uint256"
        }
      ],
      "payable": false,
      "stateMutability": "view",
      "type": "function"
    },
    {
      "constant": true,
      "inputs": [],
      "name": "loserCount",
      "outputs": [
        {
          "name": "",
          "type": "uint8"
        }
      ],
      "payable": false,
      "stateMutability": "view",
      "type": "function"
    },
    {
      "constant": true,
      "inputs": [],
      "name": "MIN_BET",
      "outputs": [
        {
          "name": "",
          "type": "uint256"
        }
      ],
      "payable": false,
      "stateMutability": "view",
      "type": "function"
    },
    {
      "constant": true,
      "inputs": [],
      "name": "MAX_BET",
      "outputs": [
        {
          "name": "",
          "type": "uint256"
        }
      ],
      "payable": false,
      "stateMutability": "view",
      "type": "function"
    },
    {
      "constant": true,
      "inputs": [],
      "name": "owner",
      "outputs": [
        {
          "name": "",
          "type": "address"
        }
      ],
      "payable": false,
      "stateMutability": "view",
      "type": "function"
    },
    {
      "constant": true,
      "inputs": [],
      "name": "winnerCount",
      "outputs": [
        {
          "name": "",
          "type": "uint8"
        }
      ],
      "payable": false,
      "stateMutability": "view",
      "type": "function"
    },
    {
      "constant": true,
      "inputs": [],
      "name": "winner",
      "outputs": [
        {
          "name": "",
          "type": "address"
        }
      ],
      "payable": false,
      "stateMutability": "view",
      "type": "function"
    },
    {
      "inputs": [
        {
          "name": "num1",
          "type": "uint8"
        },
        {
          "name": "num2",
          "type": "uint8"
        },
        {
          "name": "num3",
          "type": "uint8"
        }
      ],
      "payable": true,
      "stateMutability": "payable",
      "type": "constructor"
    },
    {
      "payable": true,
      "stateMutability": "payable",
      "type": "fallback"
    },
    {
      "anonymous": false,
      "inputs": [
        {
          "indexed": true,
          "name": "addr",
          "type": "address"
        },
        {
          "indexed": false,
          "name": "name",
          "type": "string"
        },
        {
          "indexed": false,
          "name": "amount",
          "type": "uint256"
        },
        {
          "indexed": false,
          "name": "time",
          "type": "uint256"
        }
      ],
      "name": "WinningBet",
      "type": "event"
    },
    {
      "anonymous": false,
      "inputs": [
        {
          "indexed": true,
          "name": "addr",
          "type": "address"
        },
        {
          "indexed": false,
          "name": "name",
          "type": "string"
        },
        {
          "indexed": false,
          "name": "amount",
          "type": "uint256"
        },
        {
          "indexed": false,
          "name": "time",
          "type": "uint256"
        }
      ],
      "name": "LosingBet",
      "type": "event"
    },
    {
      "constant": false,
      "inputs": [
        {
          "name": "guess",
          "type": "uint8"
        },
        {
          "name": "name",
          "type": "string"
        }
      ],
      "name": "guess",
      "outputs": [
        {
          "name": "",
          "type": "bool"
        }
      ],
      "payable": true,
      "stateMutability": "payable",
      "type": "function"
    },
    {
      "constant": false,
      "inputs": [],
      "name": "totalGuesses",
      "outputs": [
        {
          "name": "",
          "type": "uint8"
        }
      ],
      "payable": false,
      "stateMutability": "nonpayable",
      "type": "function"
    },
    {
      "constant": false,
      "inputs": [],
      "name": "getLastWinnerInfo",
      "outputs": [
        {
          "name": "winnerAddress",
          "type": "address"
        },
        {
          "name": "winnerName",
          "type": "string"
        },
        {
          "name": "guess",
          "type": "uint8"
        },
        {
          "name": "timeGuessed",
          "type": "uint256"
        },
        {
          "name": "ethRec",
          "type": "uint256"
        }
      ],
      "payable": false,
      "stateMutability": "nonpayable",
      "type": "function"
    },
    {
      "constant": false,
      "inputs": [
        {
          "name": "addr",
          "type": "address"
        }
      ],
      "name": "checkWinning",
      "outputs": [
        {
          "name": "winnerAddress",
          "type": "address"
        },
        {
          "name": "winnerName",
          "type": "string"
        },
        {
          "name": "guess",
          "type": "uint8"
        },
        {
          "name": "timeGuessed",
          "type": "uint256"
        }
      ],
      "payable": false,
      "stateMutability": "nonpayable",
      "type": "function"
    },
    {
      "constant": false,
      "inputs": [],
      "name": "daysSinceLastWinning",
      "outputs": [
        {
          "name": "",
          "type": "uint256"
        }
      ],
      "payable": false,
      "stateMutability": "nonpayable",
      "type": "function"
    },
    {
      "constant": false,
      "inputs": [],
      "name": "hoursSinceLastWinning",
      "outputs": [
        {
          "name": "",
          "type": "uint256"
        }
      ],
      "payable": false,
      "stateMutability": "nonpayable",
      "type": "function"
    },
    {
      "constant": false,
      "inputs": [],
      "name": "minutesSinceLastWinning",
      "outputs": [
        {
          "name": "",
          "type": "uint256"
        }
      ],
      "payable": false,
      "stateMutability": "nonpayable",
      "type": "function"
    },
    {
      "constant": false,
      "inputs": [],
      "name": "secondsSinceLastWinning",
      "outputs": [
        {
          "name": "",
          "type": "uint256"
        }
      ],
      "payable": false,
      "stateMutability": "nonpayable",
      "type": "function"
    },
    {
      "constant": false,
      "inputs": [
        {
          "name": "amount",
          "type": "uint256"
        }
      ],
      "name": "ownerWithdraw",
      "outputs": [],
      "payable": false,
      "stateMutability": "nonpayable",
      "type": "function"
    }
  ],
  "bytecode": "0x606060405260008060006101000a81548160ff021916908360ff16021790555060008060016101000a81548160ff021916908360ff16021790555060405160608062001338833981016040528080519060200190919080519060200190919080519060200190919050506060604051908101604052808460ff1660ff1681526020018360ff1660ff1681526020018260ff1660ff1681525060029060036100a79291906100f1565b5033600460006101000a81548173ffffffffffffffffffffffffffffffffffffffff021916908373ffffffffffffffffffffffffffffffffffffffff1602179055505050506101c8565b82805482825590600052602060002090601f016020900481019282156101875791602002820160005b8382111561015857835183826101000a81548160ff021916908360ff160217905550926020019260010160208160000104928301926001030261011a565b80156101855782816101000a81549060ff0219169055600101602081600001049283019260010302610158565b505b5090506101949190610198565b5090565b6101c591905b808211156101c157600081816101000a81549060ff02191690555060010161019e565b5090565b90565b61116080620001d86000396000f3006060604052600436106100e6576000357c0100000000000000000000000000000000000000000000000000000000900463ffffffff1680630f8df5b4146100e857806315153cdc146101115780631c11884f1461013a57806333f707d11461016357806348992bfa14610186578063524799a7146101af5780635249c231146101de5780636540742f146102d75780636d48a043146103005780637e95b523146103295780638da5cb5b146103525780638ef28249146103a757806395583f71146103d6578063caa02e081461044c578063dfbf53ae1461047b578063ee040eb9146104d0575b005b34156100f357600080fd5b6100fb6105ac565b6040518082815260200191505060405180910390f35b341561011c57600080fd5b6101246105b2565b6040518082815260200191505060405180910390f35b341561014557600080fd5b61014d6105c2565b6040518082815260200191505060405180910390f35b341561016e57600080fd5b61018460048080359060200190919050506105d0565b005b341561019157600080fd5b6101996106c5565b6040518082815260200191505060405180910390f35b34156101ba57600080fd5b6101c26106d4565b604051808260ff1660ff16815260200191505060405180910390f35b34156101e957600080fd5b610215600480803573ffffffffffffffffffffffffffffffffffffffff169060200190919050506106e6565b604051808573ffffffffffffffffffffffffffffffffffffffff1673ffffffffffffffffffffffffffffffffffffffff168152602001806020018460ff1660ff168152602001838152602001828103825285818151815260200191508051906020019080838360005b8381101561029957808201518184015260208101905061027e565b50505050905090810190601f1680156102c65780820380516001836020036101000a031916815260200191505b509550505050505060405180910390f35b34156102e257600080fd5b6102ea610895565b6040518082815260200191505060405180910390f35b341561030b57600080fd5b6103136108a0565b6040518082815260200191505060405180910390f35b341561033457600080fd5b61033c6108b1565b6040518082815260200191505060405180910390f35b341561035d57600080fd5b6103656108bc565b604051808273ffffffffffffffffffffffffffffffffffffffff1673ffffffffffffffffffffffffffffffffffffffff16815260200191505060405180910390f35b34156103b257600080fd5b6103ba6108e2565b604051808260ff1660ff16815260200191505060405180910390f35b610432600480803560ff1690602001909190803590602001908201803590602001908080601f01602080910402602001604051908101604052809392919081815260200183838082843782019150505050505091905050610908565b604051808215151515815260200191505060405180910390f35b341561045757600080fd5b61045f610e05565b604051808260ff1660ff16815260200191505060405180910390f35b341561048657600080fd5b61048e610e18565b604051808273ffffffffffffffffffffffffffffffffffffffff1673ffffffffffffffffffffffffffffffffffffffff16815260200191505060405180910390f35b34156104db57600080fd5b6104e3610e3e565b604051808673ffffffffffffffffffffffffffffffffffffffff1673ffffffffffffffffffffffffffffffffffffffff168152602001806020018560ff1660ff168152602001848152602001838152602001828103825286818151815260200191508051906020019080838360005b8381101561056d578082015181840152602081019050610552565b50505050905090810190601f16801561059a5780820380516001836020036101000a031916815260200191505b50965050505050505060405180910390f35b60015481565b6000610e10600154024203905090565b600060018054024203905090565b600460009054906101000a900473ffffffffffffffffffffffffffffffffffffffff1673ffffffffffffffffffffffffffffffffffffffff163373ffffffffffffffffffffffffffffffffffffffff1614156106bd57666a94d74f430000600302813073ffffffffffffffffffffffffffffffffffffffff163103101561065657600080fd5b600460009054906101000a900473ffffffffffffffffffffffffffffffffffffffff1673ffffffffffffffffffffffffffffffffffffffff166108fc829081150290604051600060405180830381858888f1935050505015156106b857600080fd5b6106c2565b600080fd5b50565b6000603c600154024203905090565b6000809054906101000a900460ff1681565b60006106f0611018565b6000806106fb61102c565b600560008773ffffffffffffffffffffffffffffffffffffffff1673ffffffffffffffffffffffffffffffffffffffff16815260200190815260200160002060a060405190810160405290816000820160009054906101000a900473ffffffffffffffffffffffffffffffffffffffff1673ffffffffffffffffffffffffffffffffffffffff1673ffffffffffffffffffffffffffffffffffffffff168152602001600182018054600181600116156101000203166002900480601f0160208091040260200160405190810160405280929190818152602001828054600181600116156101000203166002900480156108355780601f1061080a57610100808354040283529160200191610835565b820191906000526020600020905b81548152906001019060200180831161081857829003601f168201915b505050505081526020016002820160009054906101000a900460ff1660ff1660ff16815260200160038201548152602001600482015481525050905080600001519450806020015193508060400151925080606001519150509193509193565b662386f26fc1000081565b600062015180600154024203905090565b666a94d74f43000081565b600460009054906101000a900473ffffffffffffffffffffffffffffffffffffffff1681565b60008060019054906101000a900460ff166000809054906101000a900460ff1601905090565b600061091261102c565b6000666a94d74f4300006003023073ffffffffffffffffffffffffffffffffffffffff16311115610df857600a8560ff1611806109555750666a94d74f43000034115b806109665750662386f26fc1000034105b1561097057600080fd5b6002600081548110151561098057fe5b90600052602060002090602091828204019190069054906101000a900460ff1660ff168560ff1614806109e75750600260018154811015156109be57fe5b90600052602060002090602091828204019190069054906101000a900460ff1660ff168560ff16145b80610a2557506002808154811015156109fc57fe5b90600052602060002090602091828204019190069054906101000a900460ff1660ff168560ff16145b15610cf6576000600181819054906101000a900460ff168092919060010191906101000a81548160ff021916908360ff1602179055505033826000019073ffffffffffffffffffffffffffffffffffffffff16908173ffffffffffffffffffffffffffffffffffffffff168152505083826020018190525084826040019060ff16908160ff1681525050428260600181815250503482608001818152505081600560003373ffffffffffffffffffffffffffffffffffffffff1673ffffffffffffffffffffffffffffffffffffffff16815260200190815260200160002060008201518160000160006101000a81548173ffffffffffffffffffffffffffffffffffffffff021916908373ffffffffffffffffffffffffffffffffffffffff1602179055506020820151816001019080519060200190610b6692919061107b565b5060408201518160020160006101000a81548160ff021916908360ff160217905550606082015181600301556080820151816004015590505033600360006101000a81548173ffffffffffffffffffffffffffffffffffffffff021916908373ffffffffffffffffffffffffffffffffffffffff1602179055503460020290503373ffffffffffffffffffffffffffffffffffffffff166108fc829081150290604051600060405180830381858888f193505050501515610c2657600080fd5b3373ffffffffffffffffffffffffffffffffffffffff167fb5a5d4bd4f460d3f105e17f91f4d4e7c899e8f0c4182c5ea9f03395da3ad8892853485606001516040518080602001848152602001838152602001828103825285818151815260200191508051906020019080838360005b83811015610cb1578082015181840152602081019050610c96565b50505050905090810190601f168015610cde5780820380516001836020036101000a031916815260200191505b5094505050505060405180910390a260019250610df3565b60008081819054906101000a900460ff168092919060010191906101000a81548160ff021916908360ff160217905550503373ffffffffffffffffffffffffffffffffffffffff167f268102b1cf051ac162774d22ef10b6aed1b2e17cb30daf2aeb5d190f8a091de6853485606001516040518080602001848152602001838152602001828103825285818151815260200191508051906020019080838360005b83811015610db2578082015181840152602081019050610d97565b50505050905090810190601f168015610ddf5780820380516001836020036101000a031916815260200191505b5094505050505060405180910390a2600092505b610dfd565b600080fd5b505092915050565b600060019054906101000a900460ff1681565b600360009054906101000a900473ffffffffffffffffffffffffffffffffffffffff1681565b6000610e48611018565b6000806000610e5561102c565b60056000600360009054906101000a900473ffffffffffffffffffffffffffffffffffffffff1673ffffffffffffffffffffffffffffffffffffffff1673ffffffffffffffffffffffffffffffffffffffff16815260200190815260200160002060a060405190810160405290816000820160009054906101000a900473ffffffffffffffffffffffffffffffffffffffff1673ffffffffffffffffffffffffffffffffffffffff1673ffffffffffffffffffffffffffffffffffffffff168152602001600182018054600181600116156101000203166002900480601f016020809104026020016040519081016040528092919081815260200182805460018160011615610100020316600290048015610fb15780601f10610f8657610100808354040283529160200191610fb1565b820191906000526020600020905b815481529060010190602001808311610f9457829003601f168201915b505050505081526020016002820160009054906101000a900460ff1660ff1660ff1681526020016003820154815260200160048201548152505090508060000151955080602001519450806040015193508060600151925080608001519150509091929394565b602060405190810160405280600081525090565b60a060405190810160405280600073ffffffffffffffffffffffffffffffffffffffff16815260200161105d6110fb565b8152602001600060ff16815260200160008152602001600081525090565b828054600181600116156101000203166002900490600052602060002090601f016020900481019282601f106110bc57805160ff19168380011785556110ea565b828001600101855582156110ea579182015b828111156110e95782518255916020019190600101906110ce565b5b5090506110f7919061110f565b5090565b602060405190810160405280600081525090565b61113191905b8082111561112d576000816000905550600101611115565b5090565b905600a165627a7a7230582049c1a0ab5ad0ff3c844ee6ddd4693471b8c4eee21fa5b607da5099a63b6dbd390029",
  "source": "pragma solidity ^0.4.4;\n\n//import \"./MultiNumberBettingAbstractV3.sol\";\n\n/*\nExercise#1\n\nIn the contract MultiNumberBettingAbstractV3, declare the following two events\n\nWinningBet(address of winner, name of winner, amount)\nLosingBet(address of loser, name of loser, amount)\nExercise#2\n\nMultiNumberBettingV7\n\nUpdate the guess() method to emit appropriate events\n*/\n\ncontract MultiNumberBettingV7 {\n//contract MultiNumberBettingV7 is MultiNumberBettingAbstractV3 {\n\n  uint8 public loserCount = 0;\n  uint8 public winnerCount = 0;\n  uint256 public lastWinnerAt;\n  uint8[] arr;\n  address public winner;\n  address public owner;\n  // moved from abstract file\n  uint public constant MAX_BET = .03 ether;\n  uint public constant MIN_BET = .01 ether;\n\n  event WinningBet(address indexed addr, string name, uint amount, uint256 time);\n  event LosingBet(address indexed addr, string name, uint amount, uint256 time);\n  // Winner\n  struct Winner {\n    address winnerAddress;\n    bytes name;\n    uint8 guess;\n    uint256 guessedAt;\n    uint ethReceived;\n  }\n  // Storage\n  mapping(address => Winner)  winnerAddresses;\n\n  modifier contractIsFunded {\n    if (this.balance > 3*MAX_BET) {\n      _;\n    } else {\n      revert();\n    }\n  }\n\n  modifier ownerOnly {\n    if (msg.sender == owner) {\n      _;\n    } else {\n      revert();\n    }\n  }\n\n  function MultiNumberBettingV7(uint8 num1, uint8 num2, uint8 num3) payable {\n    // constructor\n    arr = [num1, num2, num3];\n    owner = msg.sender;\n  }\n\n  function guess(uint8 guess, string name) payable contractIsFunded returns (bool) {\n    if (guess > 10 || msg.value > MAX_BET || msg.value < MIN_BET) {\n      // throw an exception\n      revert();\n    } else {\n      if (guess == arr[0] || guess == arr[1] || guess == arr[2]) {\n        winnerCount++;\n        // update lastWinnerAt state variable by setting it equal to the current time\n        // first instantiate a memory struct of type winner\n        Winner memory wnnr;\n        wnnr.winnerAddress = msg.sender;\n        wnnr.name = bytes(name);\n        wnnr.guess = guess;\n        wnnr.guessedAt = now;\n        wnnr.ethReceived = msg.value;\n        // now add this struct to the mapping\n        winnerAddresses[msg.sender] = wnnr;\n        winner = msg.sender;\n\n        // if there's enough ether in this contract, send twice the value of the bet to the winner\n        uint sendVal = 2 * msg.value;\n        msg.sender.transfer(sendVal);\n\n        // emit WinningBet event\n        // emit NewHighBid(msg.sender, name, msg.value)\n        // event WinningBet(address indexed winner, string name, uint amount)\n        emit WinningBet(msg.sender, name, msg.value, wnnr.guessedAt);\n\n        return true;\n      } else {\n        loserCount++;\n        //emit LosingBet event\n        // event LosingBet(address indexed loser, string name, uint amount)\n        emit LosingBet(msg.sender, name, msg.value, wnnr.guessedAt);\n\n        return false;\n      }\n    }\n  }\n\n  function totalGuesses() returns (uint8) {\n    return (loserCount + winnerCount);\n  }\n\n  function getLastWinnerInfo() returns (address winnerAddress, string winnerName, uint8 guess, uint256 timeGuessed, uint ethRec) {\n    // local memory instance of Winner struct corresponding to last winner address in storage\n    Winner memory wnnr = winnerAddresses[winner];\n    // return the following from wnnr struct\n    winnerAddress = wnnr.winnerAddress;\n    winnerName = string(wnnr.name);\n    guess = wnnr.guess;\n    timeGuessed = wnnr.guessedAt;\n    ethRec = wnnr.ethReceived;\n  }\n\n  function checkWinning(address addr) returns (address winnerAddress, string winnerName, uint8 guess, uint256 timeGuessed) {\n    // local memory instance of Winner struct corresponding to address if function parameter\n    Winner memory wnnr = winnerAddresses[addr];\n    // return the following from wnnr struct\n    winnerAddress = wnnr.winnerAddress;\n    winnerName = string(wnnr.name);\n    guess = wnnr.guess;\n    timeGuessed = wnnr.guessedAt;\n  }\n\n  function daysSinceLastWinning() public returns (uint) {\n    return (now - lastWinnerAt*1 days);\n  }\n\n  function hoursSinceLastWinning() public returns (uint) {\n    return (now - lastWinnerAt*1 hours);\n  }\n\n  function minutesSinceLastWinning() public returns (uint) {\n    return (now - lastWinnerAt*1 minutes);\n  }\n\n  function secondsSinceLastWinning() public returns (uint) {\n    return (now - lastWinnerAt*1 seconds);\n  }\n\n  function ownerWithdraw (uint amount) ownerOnly {\n    if ((this.balance - amount) < 3*MAX_BET) {\n      revert();\n    } else {\n      owner.transfer(amount);\n    }\n  }\n\n  function () public payable {\n    // Do nothing at this time....\n  }\n\n}\n",
  "sourcePath": "/home/nick/Documents/ethereumdappscourse/betting/contracts/MultiNumberBettingV7.sol",
  "compiler": {
    "name": "solc",
    "version": "0.4.21+commit.dfe3193c.Emscripten.clang"
  },
  "schemaVersion": "2.0.0",
  "updatedAt": "2018-05-12T19:02:30.945Z"
}